:10000000FCFF022025220000DD210000DD21000090
:10001000DD210000DD210000DD210000DD210000E8
:10002000DD210000DD210000DD210000DD210000D8
:10003000DD210000DD210000DD210000DD210000C8
:10004000DD210000DD210000DD210000DD210000B8
:10005000DD210000DD210000DD210000DD210000A8
:10006000DD210000DD210000DD210000DD21000098
:10007000DD210000DD210000DD210000DD21000088
:10008000DD210000DD210000DD210000DD21000078
:10009000DD210000DD210000DD210000DD21000068
:1000A000DD210000DD210000DD210000DD21000058
:1000B000DD210000DD210000DD210000DD21000048
:1000C000DD210000DD210000DD210000DD21000038
:1000D000DD210000DD210000DD210000DD21000028
:1000E000DD210000DD210000DD210000DD21000018
:1000F000DD210000DD210000DD210000DD21000008
:10010000DD210000DD210000DD210000DD210000F7
:10011000DD210000DD210000DD210000DD210000E7
:10012000DD210000DD210000DD210000DD210000D7
:10013000DD210000DD210000DD210000DD210000C7
:10014000DD210000DD210000DD210000DD210000B7
:10015000DD210000DD210000DD210000DD210000A7
:10016000DD210000DD210000DD210000DD21000097
:10017000DD210000DD210000DD210000DD21000087
:10018000DD210000DD210000DD210000DD21000077
:08019000DD210000DD2100006B
:1022240000F010F8FFF7DCFF00F07AFDFFF7EEFF97
:1022340000F028FDFFF718FFFFF79AFFFFF744FFB0
:04224400FCE7FEE7CE
:10201C0081B01CF8019B0BF8019BBBEB0A0FF8D1AC
:04202C0001B0704748
:1020300081B04FF000094FF0000CBDEB0A0F04DC3B
:10204000BDEB0B0F01DBD446EA464BF8049BBBEB20
:102050000A0FFAD1BCEB0A0F05DDE246D9F800B051
:0A2060000BF1040BF1E701B070472B
:10206C0081B0CDF800E0144801460020FFF740FE97
:10207C0042F6FE47C0F2311700BF00BF7F1EFDD1F4
:10208C0000BF00BF00BF42F280510120FFF74AFFA2
:10209C0040F6FE07C0F23D0700BF00BF7F1EFDD11A
:1020AC0000BF00BF00BF05480221FFF779FFDDF834
:1020BC0000E001B0704700BF842C00004000FF1FFF
:101CFC0081B0CDF800E011E00846FFF73FFF16E099
:101D0C000846FFF74BFF12E00846FFF727FF0EE0EF
:101D1C000846FFF765FF0AE0012008E00028EBD039
:101D2C000128EDD00228EFD00328F1D0F4E7DDF83C
:061D3C0000E001B0704759
:101B880081B0CDF800E0016808460449FFF706FD7A
:101B98000020DDF800E001B0704700BF5C2A0000BB
:1015A40081B0CDF800E00A4601460348FFF714FE77
:0C15B400DDF800E001B070470060064068
:1011DC008AB0CDF800E0504B984210D100244F4B10
:1011EC001C60012464B24E4B1C604E4C4E4B1C6078
:1011FC004E4C4F4B1C604F4C4F4B1C6026E04F4BE2
:10120C00984210D100244E4B1C60012464B24D4B0B
:10121C001C604D4C444B1C604C4C454B1C604C4C66
:10122C00454B1C6012E04B4B98420FD100244A4BAB
:10123C001C60012464B2494B1C60494C3A4B1C6045
:10124C00484C3B4B1C60484C3B4B1C600191029042
:10125C001046FFF7B9FC06AB1846FFF7DBFC02980B
:10126C0001994FF0FF39002740F200080022022AB2
:10127C0037D8B9F1000F34D001231BB203FA02F5B1
:10128C002DB20026322E28D2F400384B1B191B1D10
:10129C001B6805FB03F4079BB3FBF4F3049399421F
:1012AC0003D9049BCB1A039302E0049B5B1A0393B0
:1012BC00039B0593039B4B450BD21746F4002B4B1A
:1012CC001B19D3F80080059C059B002B00D105E071
:1012DC0000E04C46761CA146D4E74C46521CA14675
:1012EC00C5E7441CBB0143EA08032370851C012499
:1012FC002B7864F3C7132B70851C01242B7864F3B3
:10130C0086132B70851D01242B7864F345132B70E9
:10131C00DDF800E00AB07047006006408000FF1F57
:10132C009806904281160000DC00FF1FFD1400009F
:10133C00E000FF1F45180000E400FF1F007006408E
:10134C008400FF1F9C069042C1150000211500006F
:10135C00A917000000600E408800FF1F180590427E
:10136C0045150000D91400008517000074270000F3
:100C200081B0CDF800E00446FFF76EFC40F2E831F9
:100C300000FB01F3194909680A0F1849096801F016
:100C40007061090EC8B21549096801F47001090DF7
:100C5000CDB21249096801F47021090CCEB2D1B2AB
:100C6000491C09B259430F462360221D411C09B299
:100C7000B7FBF1F1116004F20802691C09B2B7FB7D
:100C8000F1F1116004F20C02711C09B2B7FBF1F131
:100C90001160DDF800E001B0704700BF44800440FF
:0C05080001480068704700BFCC00FF1FD6
:100BD40081B0CDF800E040F2000C83464FEA8C016E
:100BE4000BEB01010968B1F1FF3F12D00BF13401A5
:100BF4004FEA8C03C91809680A460BEB030109681C
:100C040008461146FFF784FC0CF1010C1FFA8CFC1A
:0A0C1400E4E7DDF800E001B07047EE
:1005140082B0CDF800E080464FEA581202F007029C
:10052400914608F01F04A24693010D4AD3184FF0D8
:100534000102A240019218460A460199FFF7D8FF2A
:100544004FEA0933074AD3184FEA8A029C1808F481
:10055400E06322681A432260DDF800E002B07047CD
:0805640000F00F40009004407C
:1004F40081B0CDF800E0FFF7A1FFDDF800E001B026
:0205040070473E
:1004400083B0CDF800E006460C4615463046FFF76F
:10045000DFFF40F2FF1306EA030080090026224670
:100460002946202E39D24FF0010303FA06F402EA9E
:1004700004031F46A3422ED104031A4B1C19B300D8
:10048000E51801952C68184B04EA03032B60174B01
:1004900001EA0304019B1B6843EA0404019B1C60FE
:1004A00001F48033B3F5803F15D08401104B1B1944
:1004B0001433029301F400333BB1FC43029B1B68ED
:1004C00003EA0404029B1C6005E0029B1B6843EAEC
:1004D0000704029B1C60761CC3E7DDF800E003B054
:1004E000704700BF009004400000FFFFFFFF0000C6
:0404F00000F00F40C9
:1004100081B040F2FF1100EA01018909084600F2AB
:1004200009024FF0010101FA02F20449096841EAA8
:10043000020202490A6001B0704700BF38800440E0
:101BA80081B0CDF800E0016808460449FFF7A4FEBB
:101BB8000020DDF800E001B0704700BFA02B000056
:1019000081B0CDF800E00A4601460348FFF766FCC7
:0C191000DDF800E001B0704700700640F8
:101B680081B0CDF800E0016808460449FFF786FE19
:101B78000020DDF800E001B0704700BFC82A00006F
:1018840081B0CDF800E00A4601460348FFF7A4FC06
:0C189400DDF800E001B0704700600E407D
:101BEC0081B0CDF800E0016808460449FFF744FED7
:101BFC000020DDF800E001B0704700BFC82A0000EB
:101F300081B0CDF800E011E00846FFF745FE16E05D
:101F40000846FFF7C3FD12E00846FFF7ADFD0EE0BF
:101F50000846FFF797FD0AE0012008E00028EBD0D3
:101F60000128EDD00228EFD00328F1D0F4E7DDF806
:061F700000E001B0704723
:101BC80081B0CDF800E0FFF7A5FE044A04490A6099
:101BD8000020DDF800E001B0704700BF31170000B9
:041BE8008C00FF1F4F
:10191C0081B0CDF800E003460A48FFF7B3FB0A4A52
:10192C0040F2000104B402B440F20002194640F245
:10193C0000030448FFF776FB02B0DDF800E001B0CD
:0C194C00704700BF00C00640342B0000B4
:1010900081B0304988420CD12F4A30490A60304A29
:1010A00030490A60304A31490A60314A31490A60A0
:1010B0004EE0314988420CD1304A28490A60304A12
:1010C00028490A602F4A29490A602F4A29490A609B
:1010D0003EE02E4988420CD12D4A20490A602D4A13
:1010E00020490A602C4A21490A602C4A21490A6099
:1010F0002EE02B4988420CD12A4A18490A602A4A14
:1011000018490A60294A19490A60294A19490A6096
:101110001EE0284988420CD1274A10490A60274A14
:1011200010490A60264A11490A60264A11490A6094
:101130000EE0254988420BD1244A08490A60244A16
:1011400008490A60234A09490A60234A09490A6092
:1011500001B0704700A0064015170000E800FF1F0F
:1011600075150000EC00FF1F5D150000F000FF1F6B
:1011700069160000F400FF1F00B00640F9160000D9
:1011800099160000C9160000B116000000C0064004
:101190003117000009160000F115000021160000AB
:1011A00000D00640691700005116000039160000F3
:1011B000D915000000A00E404D1700008D1500004D
:1011C000E1160000E918000000B00E4069180000A8
:0C11D000B9180000D1180000A1180000A0
:1010300085B0CDF800E001900291ADF80C20ADF83C
:101040001030BDF81440ADF814400698FFF7C2FD0B
:101050000198FFF75FFE02990198FFF721FEBDF8A6
:101060000C100198FFF7A0FEBDF810100198FFF7D3
:1010700095FDBDF814100198FFF7BAFE0198FFF72F
:10108000BDFE0198FFF7ACFEDDF800E005B070474B
:100D140081B01849884204D1012252B216490A60AE
:100D240026E01649884204D1012252B214490A60CD
:100D34001EE01449884204D1012252B212490A60C9
:100D440016E01249884204D1012252B210490A60C5
:100D54000EE01049884204D1012252B20E490A60C1
:100D640006E00E49884203D1012252B20C490A60BE
:100D740001B0704700A00640A806904200B00640AB
:100D8400AC06904200C00640B006904200D0064037
:100D9400B406904200A00E402805904200B00E40D8
:040DA4002C05904248
:100CA00085B0CDF800E08046894601AA1046FFF7DE
:100CB000B7FF164A904503D0154A904500D001E091
:100CC000019800E002984FEA0912B0FBF2F291B2EB
:100CD00092B2130A9BB298F800201A4388F80020B9
:100CE00008F10103CAB21A7043014FEA0912B3FBBB
:100CF000F2F34A0192B29A1AD0B208F10A031A78B2
:100D000002431A70DDF800E005B0704700A006400D
:040D100000B00640E9
:100DA80081B0841C23784FF6EF7212B203EA020274
:100DB8002270841C0B0122781A43227001B07047FC
:100B9C0081B001F0020262B1841C01F002032278E0
:100BAC001A432270841C01F0010322781A4322702C
:100BBC0007E0841C23784FF6FD7212B203EA02029E
:060BCC00227001B0704729
:0C0DF00081B002780A43027001B0704725
:100DFC0081B0C21C117841F00401117001B0704730
:100DE00081B0C21C117841F00801117001B0704748
:101ACC0081B0CDF800E0FFF799FE044A04490A60A2
:101ADC000020DDF800E001B0704700BF691700007E
:041AEC008C00FF1F4C
:1018080081B0CDF800E003460A48FFF73DFC0A4ADC
:1018180040F2000104B402B440F20002194640F25A
:1018280000030448FFF700FC02B0DDF800E001B057
:0C183800704700BF00D00640842900006B
:101AA80081B0CDF800E0FFF78DFE044A04490A60D2
:101AB8000020DDF800E001B0704700BF15170000F6
:041AC8008C00FF1F70
:1017CC0081B0CDF800E003460A48FFF75BFC0A4AFB
:1017DC0040F2000104B402B440F20002194640F297
:1017EC0000030448FFF71EFC02B0DDF800E001B076
:0C17FC00704700BF00A00640F02900006C
:101A840081B0CDF800E0FFF79FFE044A04490A60E4
:101A94000020DDF800E001B0704700BF151700001A
:041AA4008C00FF1F94
:101FAC0083B0CDF800E0024610460D228DF80820D3
:101FBC000A228DF809201FE0FFF7C0FD23E002780C
:101FCC002AB10190FFF7BAFD0198401CF7E71AE01F
:101FDC0002782AB10190FFF7B1FD0198401CF7E798
:101FEC0002AA1046FFF7AAFD0DF109021046FFF7F1
:101FFC00A5FD08E0062007E00029DDD00129DED090
:10200C000229E5D0F6E70020DDF800E003B07047C8
:101B480081B0CDF800E00178CCB2A0B2034C246893
:101B5800A0470020DDF800E001B070478C00FF1FAF
:1017140081B0CDF800E081B20348FFF72DFEDDF87B
:0C17240000E001B0704700BF00A00640CC
:10137C0081B0ADF800100146BDF800000A1D1378CD
:10138C00C3F3C01202B9F9E7CA1D107001B070475F
:1016F80081B0CDF800E081B20348FFF73BFEDDF88A
:0C17080000E001B0704700BF00B00640D8
:1017300081B0CDF800E081B20348FFF71FFEDDF86D
:0C17400000E001B0704700BF00C0064090
:1017680081B0CDF800E081B20348FFF703FEDDF851
:0C17780000E001B0704700BF00D0064048
:10174C0081B0CDF800E081B20348FFF711FEDDF85F
:0C175C0000E001B0704700BF00A00E408C
:1018680081B0CDF800E081B20348FFF783FDDDF8D1
:0C18780000E001B0704700BF00B00E405F
:1021740081B0CDF800E0702214491548FFF7AAFD9C
:102184004BF29800FFF7F6FE42F6FE47C0F2311715
:1021940000BF00BF7F1EFDD100BF00BF00BF43F2E0
:1021A4001750FFF7E7FE40F6FE07C0F23D0700BFF9
:1021B40000BF7F1EFDD100BF00BF00BF0548022144
:1021C400FFF7F2FEDDF800E001B07047782C000064
:0821D4000C2C00005A00FF1F53
:101CD80081B0CDF800E00446054B1A700846FFF7BE
:101CE80019FF2046FFF72AFFDDF800E001B0704732
:041CF8007E00FF1F4C
:101B1C00026806490A60011D0A6805490A6000F25C
:101B2C0008010A6803490A60704700BFF800FF1FEC
:081B3C00FC00FF1F0001FF1F68
:021B44007047E8
:101F780082B0CDF800E001AA010A1170511C087066
:101F8800FFF7B2FD01AA064909780123C8B2114634
:101F98000222FFF75FFDDDF800E002B0704700BFE6
:041FA8007E00FF1F99
:101AF00082B0CDF800E040F20004ADF80440064C9E
:101B00002468A047BDF9041041EA000000B2DDF8E6
:0C1B100000E002B0704700BFF800FF1FAB
:1016800081B0CDF800E00348FFF788FEDDF800E008
:0816900001B070470060064044
:10139C0084B0CDF800E04FF000024349884205D1FB
:1013AC0042490C6842490968039115E04149884259
:1013BC0006D141490A6841490968039114460BE07A
:1013CC003F49884206D13F490A683F490968039161
:1013DC00114600E011460C4601940290FFF742FBC7
:1013EC000298019C831C0122197862F34511197033
:1013FC00C11C0A78C2F30011C9B1C31C01221978AF
:10140C0062F304111970811D0A78C2F3001129B11D
:10141C00831D0122197862F304111970C31C012277
:10142C00197862F3410119704FF6FF7038E02346CA
:10143C00019404460198E11C0A78C2F3400151B9A9
:10144C0040B123B90520039CA047012028E05A1E77
:10145C001346FFE7EFE7A11D0A78C2F3001129B18B
:10146C00A31D0122197862F304111970E31C0122E7
:10147C00197862F34101197005462346D91C0A7884
:10148C00C2F3400159B148B125B90520039CA047CE
:10149C00012005E0691E0A461546FFE7EEE700202D
:1014AC00DDF800E004B07047006006408000FF1FCC
:1014BC00D000FF1F007006408400FF1FD400FF1FE8
:0C14CC0000600E408800FF1FD800FF1FCA
:0C0DC80001490860704700BF0808FE43A6
:0C0DD40001490860704700BF2C08FE4376
:0C0B900001490860704700BF1010FE43D0
:0C06DC0001490860704700BF1410FE4385
:0C06E80001490860704700BF1C10FE4371
:0C06F40001490860704700BF1810FE4369
:0C06B80001490860704700BF2800FE43A5
:0C06C40001490860704700BF3408FE4385
:0C06D00001490860704700BF0818FE4395
:0C07240001490860704700BF0C18FE433C
:0C07300001490860704700BF2018FE431C
:0C073C0001490860704700BF2418FE430C
:0C07000001490860704700BF0C08FE4370
:0C070C0001490860704700BF4C08FE4324
:0C07180001490860704700BF1018FE4344
:0C06480001490860704700BF1418FE4311
:0C06540001490860704700BF1C18FE43FD
:0C06600001490860704700BF1818FE43F5
:0C063C0001490860704700BF0810FE4331
:0C06A00001490860704700BF2008FE43BD
:0C06AC0001490860704700BF4010FE4389
:0C06780001490860704700BF4410FE43B9
:0C06840001490860704700BF2810FE43C9
:0C06900001490860704700BF2C10FE43B9
:02069C007047A5
:0C066C0001490860704700BF2010FE43E9
:0C06300001490860704700BF2410FE4321
:0C07480001490860704700BF5408FE43E0
:0C0B2C0001490860704700BF5C08FE43F0
:0C0B380001490860704700BF5808FE43E8
:0C0B440001490860704700BF1420FE4308
:0C0B080001490860704700BF0420FE4354
:0C0B140001490860704700BF4008FE4324
:0C0B200001490860704700BF4408FE4314
:0C0B740001490860704700BF3000FE43DC
:0C0B800001490860704700BF2C00FE43D4
:020B8C007047B0
:0C0B500001490860704700BF3010FE43F0
:0C0B5C0001490860704700BF3410FE43E0
:0C0B680001490860704700BF5408FE43BC
:0C07780001490860704700BF5C08FE43A8
:0C07840001490860704700BF5808FE43A0
:0C07900001490860704700BF1820FE43BC
:0C07540001490860704700BF0820FE4308
:0C07600001490860704700BF4008FE43DC
:0C076C0001490860704700BF4408FE43CC
:0C0A580001490860704700BF3000FE43F9
:0C0A640001490860704700BF2C00FE43F1
:100A700082B0CDF800E04FF000021A49884205D15B
:100A800019490B6819490968019115E0184988420C
:100A900006D118490A6818490968019113460BE004
:100AA0001649884206D116490A6816490968019113
:100AB000114600E011460B461D4604462046FFF74E
:100AC00055FD50B943B11DB90720019CA04704E072
:100AD000691E08460546FFE7F0E7DDF800E002B0D2
:100AE000704700BF006006408000FF1FD000FF1F5E
:100AF000007006408400FF1FD400FF1F00600E40FE
:080B00008800FF1FD800FF1F51
:10056C0081B0C11C0A78C2F3401181F00101C9B2FB
:06057C00C8B201B0704797
:1015C00081B0CDF800E00348FFF7E8FEDDF800E069
:0815D00001B0704700700640F5
:1015440081B0CDF800E00348FFF726FFDDF800E0A6
:0815540001B0704700600E4079
:1015740081B0CDF800E00348FFF73CFDDDF800E062
:0815840001B0704700A0064011
:100FF80081B0011D0A78C2F3401101B9F9E7C11D9A
:081008000978C8B201B070477D
:10155C0081B0CDF800E00348FFF754FDDDF800E062
:08156C0001B0704700A0064029
:0E10100081B0011D0978C1F3401001B0704796
:1016680081B0CDF800E00348FFF7D6FCDDF800E0D4
:0816780001B0704700A006401C
:0E10200081B0011D0978C1F3801001B0704746
:1016980081B0CDF800E00348FFF7AAFCDDF800E0D0
:0816A80001B0704700B00640DC
:1016C80081B0CDF800E00348FFF79EFCDDF800E0AC
:0816D80001B0704700B00640AC
:1016B00081B0CDF800E00348FFF7B2FCDDF800E0B0
:0816C00001B0704700B00640C4
:1016080081B0CDF800E00348FFF7F2FCDDF800E018
:0816180001B0704700C006405C
:1015F00081B0CDF800E00348FFF70AFDDDF800E018
:0816000001B0704700C0064074
:1016200081B0CDF800E00348FFF7FAFCDDF800E0F8
:0816300001B0704700C0064044
:1016500081B0CDF800E00348FFF7CEFCDDF800E0F4
:0816600001B0704700D0064004
:1016380081B0CDF800E00348FFF7E6FCDDF800E0F4
:0816480001B0704700D006401C
:1015D80081B0CDF800E00348FFF71EFDDDF800E01C
:0815E80001B0704700D006407D
:10158C0081B0CDF800E00348FFF730FDDDF800E056
:08159C0001B0704700A00E40F1
:1016E00081B0CDF800E00348FFF792FCDDF800E0A0
:0816F00001B0704700A00E409C
:1018E80081B0CDF800E00348FFF796FBDDF800E093
:0818F80001B0704700A00E4092
:1018B80081B0CDF800E00348FFF79AFBDDF800E0BF
:0818C80001B0704700B00E40B2
:1018D00081B0CDF800E00348FFF79AFBDDF800E0A7
:0818E00001B0704700B00E409A
:1018A00081B0CDF800E00348FFF7BAFBDDF800E0B7
:0818B00001B0704700B00E40CA
:101A5C0082B0CDF800E040F20004ADF80440054C33
:101A6C002468A047BDF90440044320B2DDF800E02F
:081A7C0002B07047FC00FF1FDF
:1018440081B0CDF800E008B413460A46C1B204489A
:10185400FFF7DAFA01B0DDF800E001B0704700BF2D
:0418640000600640DA
:100E0C0087B0CDF800E005920246C8B20693079C65
:100E1C0007944FF000016C4CA24206D16B4C266833
:100E2C006B4C24680494314614E06A4CA24205D100
:100E3C00694C2668694C246804940AE0684CA24208
:100E4C0006D1684C2168684C246804940E4600E076
:100E5C000E463146440001910292E1B21046FFF772
:100E6C0097FC029A019920B91046FFF7F5FC002077
:100E7C00A5E000273B46069CA34216D2059CE4182D
:100E8C002478019202910393E1B21046FFF780FCA3
:100E9C00039B0299019A20B91046FFF7DDFC002054
:100EAC008DE05C1C27463B46E5E7079C012C48D1AE
:100EBC000B461046C41C2578C5F3400464B141B1FF
:100ECC0023B90420049CA047012078E05A1E144644
:100EDC0000E01C462346EDE7861C0025347865F3BC
:100EEC00451434700A46C41C2578C5F340045CB91B
:100EFC0039B122B90420049CA04701205FE0531EA5
:100F0C0000E013461A46EEE7841D2578C5F300145D
:100F1C002CB1861D0125347865F304143470841DBE
:100F2C002578C5F380142CB1861D0125347865F322
:100F3C0086143470C61C0125347865F34104347072
:100F4C002AE0961C0125347865F3820434700B4634
:100F5C001046C41C2578C5F3400464B941B123B9CB
:100F6C000420049CA047012029E05A1E144600E0EE
:100F7C001C462346EDE7841D2578C5F300142CB1DF
:100F8C00861D0125347865F304143470C61C0125C4
:100F9C00347865F3410434700A46C41C2578C5F3D3
:100FAC0040045CB139B122B90420049CA047012053
:100FBC0005E0531E00E013461A46EEE70020DDF86C
:100FCC0000E007B0704700BF006006408000FF1FC4
:100FDC00D000FF1F007006408400FF1FD400FF1FCD
:0C0FEC0000600E408800FF1FD800FF1FAF
:10079C0082B0CDF800E04FF00003264A904205D11C
:1007AC00254A1568254A1268019215E0244A9042A0
:1007BC0006D1244A1368244A126801921D460BE0A4
:1007CC00224A904206D1224A1368224A12680192A8
:1007DC001A4600E01A461546841C0123227863F35E
:1007EC0004122270021D11702C462946C21C13786B
:1007FC00C3F340025AB949B124B90420019CA04763
:10080C00012012E0621E13461C46FFE7EEE7C41CF3
:10081C000123227863F341022270C21C1378C3F3C4
:10082C00000282F00102D2B2D0B2DDF800E002B0D8
:10083C00704700BF006006408000FF1FD000FF1F04
:10084C00007006408400FF1FD400FF1F00600E40A4
:08085C008800FF1FD800FF1FF8
:1008640084B0CDF800E04FF000023549884205D14C
:1008740034490C6834490968039115E033498842C6
:1008840006D133490A6833490968039114460BE0D9
:100894003149884206D131490A68314909680391CE
:1008A400114600E011460C46831C0022197862F3BD
:1008B40045111970831C0022197862F30411197010
:1008C4000194029000F0D2F80298019C2346C11CC6
:1008D4000A78C2F3400151B944B123B90620039CFC
:1008E400A047012027E05A1E1346FFE7EFE7811DCA
:1008F4000A78C2F3801129B1831D0122197862F3A9
:1009040086111970C31C0122197862F34101197010
:100914002346C11C0A78C2F3400159B14CB123B932
:100924000620039CA047012005E0591E0A461346F1
:10093400FFE7EEE70020DDF800E004B0704700BFF9
:10094400006006408000FF1FD000FF1F00700640BB
:100954008400FF1FD400FF1F00600E408800FF1FAB
:04096400D800FF1F99
:1017A80081B0CDF800E008B413460A46C1B2044837
:1017B800FFF728FB01B0DDF800E001B0704700BF7B
:0417C8000070064067
:1017840081B0CDF800E008B413460A46C1B204485B
:10179400FFF73AFB01B0DDF800E001B0704700BF8D
:0417A40000600E4093
:1020CC0081B0CDF800E01F480221FFF769FF1E49DF
:1020DC000120FFF795FD1C4810ED000A1B48FFF787
:1020EC002BFE1B480121FFF75BFF01211748FFF76F
:1020FC0057FF18480221FFF753FF174810ED000A4D
:10210C001248FFF719FE15480121FFF749FF01217D
:10211C000E48FFF745FF12480221FFF741FF114817
:10212C000221FFF73DFF45F6FE17C0F2622700BF04
:10213C0000BF7F1EFDD100BF00BF00BFDDF800E077
:10214C0001B070470000FF1F9000FF1F9800FF1F99
:10215C000200FF1F1D00FF1F9400FF1F2000FF1F28
:08216C003B00FF1F3E00FF1FB6
:101C0C0083B0CDF800E00191C1B2019841B902AAAC
:101C1C000190062147F6A240FFF7BEFE019809E0AD
:101C2C00012907D102AA0190062146F25840FFF77C
:101C3C00B3FE019802AC228800EE102AB8EE400ADE
:101C4C0000ED000A50ED000A1D4A00EE102A20EEAD
:101C5C00800A00ED000A50ED000A4FF08F4200EEB2
:101C6C00102A80EE800A00ED000A50ED000A154A99
:101C7C0000EE102A30EEC00A00ED000A031DA21C73
:101C8C00128800EE102AB8EE400A03ED000A031D7C
:101C9C0053ED000A0C4A00EE102A20EE800A03EDE8
:101CAC00000A031D53ED000A4FF08F4200EE102A7C
:101CBC0080EE800A03ED000ADDF800E003B0704707
:0C1CCC0000002F43000034420000C8421A
:1019A40085B0CDF800E00192CAB281B203AC0B0A53
:1019B4002370631C19708DF8082000F097F803ACAD
:1019C400244B1B7802222146D8B2002300F044F8AD
:1019D4009DF808200DF10E041E4B1B788DF808208D
:1019E4002146D8B20123FFF7B5FF9DF808200198DE
:1019F400032A0DD10DF10E042378038003881B0202
:101A04000380631C1B78DCB20388234303801DE03E
:101A1400062A1BD10DF10E063378038003881B02BE
:101A24000380731C1B78DCB2038823430380841C6B
:101A3400F31C1B782380841C23881B022380851CB1
:101A4400331D1B78DCB22B8823432B80DDF800E0A8
:081A540005B070477E00FF1F82
:1019580082B0CDF800E040F20004ADF80440044C39
:101968002468A047BDF90400DDF800E002B0704724
:041978000001FF1F4C
:1014FC0081B0CDF800E008B413460A46C1B20448E6
:10150C00FFF72CFA01B0DDF800E001B0704700BF26
:04151C000060064025
:1009680085B0CDF800E08DF8041001469DF804002C
:1009780003920493059C05944400A4B244F0010436
:1009880001910846E1B2FFF705FF019918B9084639
:10099800FFF764FF58E08E1C0025347865F30414D3
:1009A8003470049C012C06D18E1C0125347865F323
:1009B800C304347005E08E1C0025347865F3C30445
:1009C800347001910846FFF7D9FD0199049C621E15
:1009D800002A34DB15E0019102920846FFF73EFF3A
:1009E800029A019912E08E1C0125347865F3C3043C
:1009F80034700BE08E1C0025347865F3C304347022
:100A080004E0002AE7D0012AEDD0F3E73AB90C1D3B
:100A18002578039C2570039C641C03940BE00191CA
:100A280002920846FFF7AAFD029A0199039C2070DA
:100A3800039C641C0394541E23461A46C8E7059C6D
:100A480014B9084600F0A6FCDDF800E005B07047D0
:1005840082B0CDF800E04FF000021F49884205D147
:100594001E490B681E490968019115E01D498842EE
:1005A40006D11D490A681D490968019113460BE0EB
:1005B4001B49884206D11B490A681B4909680191F5
:1005C400114600E011460B46011D0C781D46C11C66
:1005D4000A78C2F3400159B94BB125B90320019CF3
:1005E400A04701200BE0691E0A461546FFE7EEE727
:1005F400C31C0122197862F341011970E0B2DDF8DD
:1006040000E002B0704700BF006006408000FF1F9A
:10061400D000FF1F007006408400FF1FD400FF1F9E
:0C06240000600E408800FF1FD800FF1F80
:1015200081B0CDF800E008B413460A46C1B20448C1
:10153000FFF71AFA01B0DDF800E001B0704700BF14
:0415400000700640F1
:1014D80081B0CDF800E008B413460A46C1B204480A
:1014E800FFF73EFA01B0DDF800E001B0704700BF39
:0414F80000600E4042
:101D440083B0CDF800E00446002000235BB28DEDA3
:101D5400020A0299B1F1FF3F05D170492046FFF70D
:101D64000BFE0320D5E0012502A9C91C097801F066
:101D74008001C9B269B102A9CA1C117881F080013D
:101D84001170691CCAB22D212170641CD7B2264679
:101D940001E02646EFB2029929B961493046FFF7BE
:101DA400EBFD0020B5E00299B1F1FF4F05D15D498B
:101DB4003046FFF7E1FDF8B2ABE08DF80430C3B272
:101DC40034469DF90400DDED020AB7EE000AF4EE94
:101DD400C00AF1EE10FA0ADADDED020AB2EE040AE4
:101DE40020EE800A8DED020A401E40B2EBE7DDEDE5
:101DF400020AB2EE040AF4EEC00AF1EE10FA0BDBAA
:101E0400DDED020A484900EE101A20EE800A8DED3D
:101E1400020A401C40B2EAE702994900029102A971
:101E2400C91C09787F39CDB202A9CA1C01211170DD
:101E34000299A940029102A9C91C09783031217084
:101E4400621C012803DB062801DC154603E02E2171
:101E54001170551C0123062144B2C8B210B302A963
:101E6400CA1C0021117002998A00029989180291F2
:101E740002994900029102A9C91C097830312970DC
:101E84006D1C63B9611E49B24AB221B92E21297071
:101E94006D1C012100E0D9B254B2CBB2FFE7401E61
:101EA400C0B2DBE72A4660B2511E0978302901D15D
:101EB400521EF9E7511E09782E2901D1521EFFE75F
:101EC40018B365211170521C002806DA2D211170F7
:101ED400521C414248B243B200E043B2D8B2D9B234
:101EE400092907D90A21B0FBF1F1C9B230311170C7
:101EF400531C00E013460A22B0FBF2F102FB11016D
:101F0400C9B230311970581C00E01046002101702C
:101F14000020DDF800E003B0704700BF7400FF1F2D
:0C1F24007800FF1F7A00FF1FCDCCCC3DE1
:10197C0081B00091014600980B461C465A1C154636
:10198C000346421C10461A78227022780AB12B4664
:08199C00F3E7084601B07047B3
:1022480090B072B6974801909748029097480390CB
:1022580097480490974805909748069097480790A4
:10226800974808909748099097480A9097480B9084
:1022780097480C90974998480D9098480E900D985B
:1022880000F007000F9001F0010050B94CF2205007
:10229800934908804DF62810088040F2D2119148E1
:1022A80001809148007800F0010050B18F48007813
:1022B80000F0080020B18D49087840F00800087047
:1022C80021E08B48006840F0005189480160894846
:1022D800006800F48070B0B9864801686FF47050E7
:1022E80001EA000040F440718248016081480068BA
:1022F80040F480717F4801607E4801686FF4007087
:1023080001407C480160AA217B4801700D9800F0CB
:10231800100060B9794801786FF060000140774893
:10232800017077480078012800D0FAE71CE00D9882
:1023380000F01000C0B10E997248814208D960219E
:102348006E4801706E480078802800D0FAE70BE0EC
:102358006A4801786FF06000014068480170684879
:102368000078012800D0FAE70499674801606748B7
:1023780001686FF440200140029800F440200143B6
:1023880062480160624801686FF440300140039878
:1023980000F4403001435E4801600F9830B10F9857
:1023A800012803D00F98022800D061E0019800F0BE
:1023B800800050B9089800F0400028B10B9800F050
:1023C8000300002800D100E015E05248006840F4FE
:1023D80000715048016050480168504801404E481B
:1023E8000160069800F0040028B14D4801684B4888
:1023F80001404B4801600A994A48017005994A48CA
:102408000170059800F0040038B14848007800F0E1
:102418001000002800D1F8E705E04448007800F0F3
:10242800100000B1F9E74248007800F0BF01C9B2D6
:10243800069800F0FD0001433D480170079800F040
:10244800E0013C48007800F01F0001433948017062
:102458000199394801700B99384801700F98022882
:1024680005D13348007840F0020131480170B8E0E6
:10247800019800F0800020B90B9800F0030000B12B
:1024880065E02448006840F4007122480160224851
:1024980001682248014020480160069800F00400C5
:1024A80000F04EB80000000000000C000000010021
:1024B80000001401220000002400000000000000B9
:1024C80002000000460000000000000000000000BC
:1024D800000000000000000007000000C0D4010058
:1024E8000E2005400020054000F0074002D00740BC
:1024F8003C80044010D0034000E0074001E0074062
:1025080003E0074080380100448004400070044024
:10251800048004403880044048900440FFF8FFFEDF
:102528004C900440084006400040064006400640E3
:102538000140064003400640005006400C4006405B
:1025480028B17A4801687A480140784801600A99B8
:10255800784801707848007800F0BF01C9B2069841
:1025680000F0FD000143744801700199734801703F
:102578000B99734801700F98072805D1059840F00A
:1025880080017048017002E005996E480170069854
:1025980000F0040048B10B9800F0030028B96A481D
:1025A800007800F0020000B9F9E7059800F004008F
:1025B80038B16548007800F01000002800D1F8E72D
:1025C80005E06148007800F0100000B1F9E70798CD
:1025D80000F0E0015D48007800F01F0001435B480F
:1025E8000170089800F0BF0159480170099800F07F
:1025F800BF0158480170089800F0400028B15448BD
:10260800007840F04001524801700F98052806D123
:102618004948007840F00201474801701BE00F98D4
:10262800062803D00F98072800D014E049480078FE
:1026380040F04001474801704348007800F04000EE
:1026480000B9F9E70F98072805D13E48007800F04F
:102658003F013C4801700F9818B10F98032800D02B
:102668002CE03948007800F00C0000B1F9E73A484E
:10267800006840F00101384801604FF00001374818
:1026880001604FF08001364801604FF00501354880
:1026980001604FF00101324801603148006800F0E4
:1026A800800000B9F9E700212D4801602A48016837
:1026B8006FF001000140284801602AE00F980128C6
:1026C80003D00F98022800D007E01F48007800F0D8
:1026D8000C00042800D0F8E71BE00F98042806D067
:1026E8000F98062803D00F98052800D007E0164851
:1026F800007800F00C00082800D0F8E709E00F98EF
:10270800072806D11048007800F00C000C2800D0EB
:10271800F8E7154801686FF00F0001400C9800F0C9
:102728000F0001431048016010B070474C900440FE
:10273800FFF8FFFE084006400140064000500640F2
:102748000C40064000400640064006400340064054
:102758000440064005400640388004400800044014
:0C276800000004400400044048800440CD
:1022100081B002490248016001B07047C0D401009A
:04222000CC00FF1FD0
:0821DC0081B0FEE701B070477D
:1021E40081B072B60849086840F47000086000BF06
:1021F40000BF00BF00BFF1EE100A40F44000E1EE62
:0C220400100A62B601B0704788ED00E0DF
:102C880000B5DFF824B0DFF824A0DFF824C0FFF790
:102C9800C1F9DFF820B0DFF820A0DFF820C0FFF787
:102CA800B9F900BD704700BF0000FF1F7E00FF1F7D
:102CB800042900008000FF1F8C00FF1F6C2C0000FF
:102D240000B5DFF810B0DFF810A0FFF77FF900BDA1
:0C2D3400704700BF0000FF1F0401FF1FDC
:100400000000000000000000FFFFFFFF02FDFFFFF3
:10277400000000001400000001000000160000002A
:102784000200000018000000030000001A0000000E
:10279400040000001C000000050000001E000000F2
:1027A40009000000200000000600000022000000D4
:1027B4000A000000240000000700000028000000B8
:1027C4000C0000002C00000010000000300000008D
:1027D400110000003800000012000000400000005A
:1027E4000F00000044000000130000004800000037
:1027F4001400000050000000150000005800000004
:1028040019000000600000001600000068000000CD
:102814001A00000070000000170000008000000093
:102824001C000000900000001D000000A00000003B
:102834001E000000C000000022000000E0000000B4
:102844001F000000F0000000230000000001000051
:1028540024000000200100002500000040010000C9
:1028640026000000800100002A000000C0010000D2
:1028740027000000E00100002B000000000200001F
:102884002C000000400200002D0000008002000027
:102894002E0000000003000032000000800300004E
:1028A4002F000000C00300003300000000040000FB
:1028B4003400000080040000350000000005000022
:1028C40036000000000600003A0000000007000087
:1028D40037000000800700003B00000000080000F3
:1028E4003C000000000900003D000000000A000058
:1028F4003E000000000C00003F000000000F00003C
:022904002000B1
:102906003E203E203E2054656D706572617475727E
:0E29160065202020202020203A2000204300B1
:102924003E203E203E2052656C61746976652068C5
:0E293400756D6964697479203A2000202500D1
:02294200200073
:102944003C203C203C2073797320696E69742064B8
:0A2954006F6E65203E203E203E001D
:10295E003C203C203C2061707020696E69742064BC
:0A296E006F6E65203E203E203E0003
:042978004E614E005E
:02297C00300029
:04297E00494E460078
:102984005103000050030000FFFFFFFF00000000A0
:102994000000000000000000000000000000000033
:1029A4000000000000000000000000000000000023
:1029B400000000000000080000000800FFFFFFFF07
:1029C4000000000000000000000000000000000003
:1029D40000000000000000000000000000000000F3
:0C29E400000000000000000000000000E7
:1029F0003103000030030000FFFFFFFF0000000074
:102A000000000000000000000000000000000000C6
:102A100000000000000000000000000000000000B6
:102A2000000000000000080000000800FFFFFFFF9A
:102A30000000000000000000000000000000000096
:102A40000000000000000000000000000000000086
:0C2A50000000000000000000000000007A
:102A5C006802000069020000FFFFFFFF0000000099
:102A6C00000000000000000000000000000000005A
:102A7C00000000000000000000000000000000004A
:102A8C00000000000000080000000800FFFFFFFF2E
:102A9C00000000000000000000000000000000002A
:102AAC00000000000000000000000000000000001A
:0C2ABC000000000000000000000000000E
:102AC8000C0500000B050000FFFFFFFF00000000E1
:102AD80000000000000000000000000000000000EE
:102AE80000000000000000000000000000000000DE
:102AF800000000000000080000000800FFFFFFFFC2
:102B080000000000000000000000000000000000BD
:102B180000000000000000000000000000000000AD
:0C2B2800000000000000000000000000A1
:102B34006303000062030000FFFFFFFF00000000CA
:102B44000000000000000000000000000000000081
:102B54000000000000000000000000000000000071
:102B6400000000000000080000000800FFFFFFFF55
:102B74000000000000000000000000000000000051
:102B84000000000000000000000000000000000041
:0C2B940000000000000000000000000035
:102BA0004A0200004B020000FFFFFFFF0000000090
:102BB0000000000000000000000000000000000015
:102BC0000000000000000000000000000000000005
:102BD000000000000000080000000800FFFFFFFFE9
:102BE00000000000000000000000000000000000E5
:102BF00000000000000000000000000000000000D5
:0C2C0000000000000000000000000000C8
:102C0C00C90D0000D50D0000910B0000DD06000081
:102C1C00E9060000F5060000B9060000C506000034
:102C2C00D106000025070000310700003D07000019
:102C3C00FFFFFFFFFFFFFFFFFFFFFFFFFFFFFFFF98
:102C4C00FFFFFFFFFFFFFFFFFFFFFFFFFFFFFFFF88
:102C5C00FFFFFFFFFFFFFFFFFFFFFFFFFFFFFFFF78
:042C6C000000000064
:042C70000000000060
:042C7400000000005C
:0C2C78008116000045180000FD1400004B
:042C8400A086010025
:00000001FF
